{
  "address": "0x00647Bd477c577185DD1B791198167784C244647",
  "abi": [
    {
      "anonymous": false,
      "inputs": [
        {
          "indexed": false,
          "internalType": "address",
          "name": "sukukBondAddress",
          "type": "address"
        }
      ],
      "name": "SukukBondCreated",
      "type": "event"
    },
    {
      "inputs": [
        {
          "internalType": "string",
          "name": "uri",
          "type": "string"
        },
        {
          "internalType": "address",
          "name": "compliance",
          "type": "address"
        }
      ],
      "name": "createSukukBond",
      "outputs": [
        {
          "internalType": "address",
          "name": "",
          "type": "address"
        }
      ],
      "stateMutability": "nonpayable",
      "type": "function"
    }
  ],
  "transactionHash": "0x15a8dca71e758163456593f915897a1f7bd447c5f159e12cc6099547edaf3bc5",
  "args": [],
  "numDeployments": 1,
  "solcInputHash": "db8f13ed83bbd81bfe16242db6ee00c8",
  "bytecode": "0x608060405234801561001057600080fd5b50613275806100206000396000f3fe608060405234801561001057600080fd5b506004361061002b5760003560e01c806330685c0614610030575b600080fd5b61004361003e36600461011d565b61005f565b6040516001600160a01b03909116815260200160405180910390f35b6000808383604051610070906100de565b61007b9291906101df565b604051809103906000f080158015610097573d6000803e3d6000fd5b506040516001600160a01b03821681529091507f0610911870c3e0baf4f4e3235058d4b1fd095e6a43a8e2d3161910d76a0c57619060200160405180910390a19392505050565b6130008061024083390190565b634e487b7160e01b600052604160045260246000fd5b80356001600160a01b038116811461011857600080fd5b919050565b6000806040838503121561013057600080fd5b823567ffffffffffffffff8082111561014857600080fd5b818501915085601f83011261015c57600080fd5b81358181111561016e5761016e6100eb565b604051601f8201601f19908116603f01168101908382118183101715610196576101966100eb565b816040528281528860208487010111156101af57600080fd5b8260208601602083013760006020848301015280965050505050506101d660208401610101565b90509250929050565b604081526000835180604084015260005b8181101561020d57602081870181015160608684010152016101f0565b50600060608285018101919091526001600160a01b03949094166020840152601f01601f19169091019091019291505056fe60806040523480156200001157600080fd5b506040516200300038038062003000833981016040819052620000349162000244565b81620000408162000100565b506200004c3362000112565b6200005960003362000164565b620000857f114e74f6ea3bd819998f78687bfcb11b140da08e9b7d222fa9c1f1ba1f2aa1223362000164565b620000b17f8b8c0776df2c2176edf6f82391c35ea4891146d7a976ee36fd07f1a6fb4ead4c3362000164565b600680546001600160a01b0319166001600160a01b0383169081179091556040517f7f3a888862559648ec01d97deb7b5012bff86dc91e654a1de397170db40e35b690600090a2505062000487565b60026200010e8282620003bb565b5050565b600380546001600160a01b038381166001600160a01b0319831681179093556040519116919082907f8be0079c531659141344cd1fd0a4f28419497f9722a3daafe3b4186f6b6457e090600090a35050565b60008281526004602090815260408083206001600160a01b03851684529091529020546200010e908390839060ff166200010e5760008281526004602090815260408083206001600160a01b03851684529091529020805460ff19166001179055620001cd3390565b6001600160a01b0316816001600160a01b0316837f2f8788117e7eff1d82e926ec794901d17c78024a50270940304540a733656f0d60405160405180910390a45050565b634e487b7160e01b600052604160045260246000fd5b80516001600160a01b03811681146200023f57600080fd5b919050565b600080604083850312156200025857600080fd5b82516001600160401b03808211156200027057600080fd5b818501915085601f8301126200028557600080fd5b8151818111156200029a576200029a62000211565b604051601f8201601f19908116603f01168101908382118183101715620002c557620002c562000211565b81604052828152602093508884848701011115620002e257600080fd5b600091505b82821015620003065784820184015181830185015290830190620002e7565b60008484830101528096505050506200032181860162000227565b925050509250929050565b600181811c908216806200034157607f821691505b6020821081036200036257634e487b7160e01b600052602260045260246000fd5b50919050565b601f821115620003b657600081815260208120601f850160051c81016020861015620003915750805b601f850160051c820191505b81811015620003b2578281556001016200039d565b5050505b505050565b81516001600160401b03811115620003d757620003d762000211565b620003ef81620003e884546200032c565b8462000368565b602080601f8311600181146200042757600084156200040e5750858301515b600019600386901b1c1916600185901b178555620003b2565b600085815260208120601f198616915b82811015620004585788860151825594840194600190910190840162000437565b5085821015620004775787850151600019600388901b60f8161c191681555b5050505050600190811b01905550565b612b6980620004976000396000f3fe608060405234801561001057600080fd5b506004361061018d5760003560e01c80636290865d116100de578063a22cb46511610097578063dc22486311610071578063dc224863146103b9578063e985e9c5146103e0578063f242432a1461041c578063f2fde38b1461042f57600080fd5b8063a22cb4651461036b578063b1770b371461037e578063d547741f146103a657600080fd5b80636290865d146102e5578063715018a61461031057806382aefa24146103185780638da5cb5b1461033f57806391d1485414610350578063a217fddf1461036357600080fd5b8063187c0d091161014b5780632eb2c2d6116101255780632eb2c2d61461028c5780632f2ff15d1461029f57806336568abe146102b25780634e1273f4146102c557600080fd5b8063187c0d09146102435780631a8e467f14610256578063248a9ca31461026957600080fd5b8062fdd58e1461019257806301ffc9a7146101b857806302fe5305146101db5780630436f2f6146101f05780630d9ce9b7146102105780630e89341c14610223575b600080fd5b6101a56101a0366004611dc2565b610442565b6040519081526020015b60405180910390f35b6101cb6101c6366004611e02565b6104db565b60405190151581526020016101af565b6101ee6101e9366004611ed4565b6104e6565b005b6102036101fe366004611f10565b6104fa565b6040516101af9190611f79565b6101ee61021e366004612055565b61087e565b610236610231366004611f10565b610969565b6040516101af9190612097565b6101ee6102513660046120aa565b6109fd565b6101ee6102643660046120f0565b610a48565b6101a5610277366004611f10565b60009081526004602052604090206001015490565b6101ee61029a3660046122bd565b610be2565b6101ee6102ad366004612366565b610c27565b6101ee6102c0366004612366565b610c51565b6102d86102d3366004612392565b610ccf565b6040516101af919061248d565b6006546102f8906001600160a01b031681565b6040516001600160a01b0390911681526020016101af565b6101ee610df8565b6101a57f114e74f6ea3bd819998f78687bfcb11b140da08e9b7d222fa9c1f1ba1f2aa12281565b6003546001600160a01b03166102f8565b6101cb61035e366004612366565b610e0c565b6101a5600081565b6101ee6103793660046124ae565b610e37565b61039161038c366004611f10565b610e42565b6040516101af999897969594939291906124e5565b6101ee6103b4366004612366565b611139565b6101a57f8b8c0776df2c2176edf6f82391c35ea4891146d7a976ee36fd07f1a6fb4ead4c81565b6101cb6103ee36600461257b565b6001600160a01b03918216600090815260016020908152604080832093909416825291909152205460ff1690565b6101ee61042a3660046125a5565b61115e565b6101ee61043d366004612609565b6111a3565b60006001600160a01b0383166104b25760405162461bcd60e51b815260206004820152602a60248201527f455243313135353a2061646472657373207a65726f206973206e6f742061207660448201526930b634b21037bbb732b960b11b60648201526084015b60405180910390fd5b506000818152602081815260408083206001600160a01b03861684529091529020545b92915050565b60006104d582611219565b6104ee61123e565b6104f781611298565b50565b610552604051806101200160405280606081526020016060815260200160008152602001600081526020016000815260200160608152602001606081526020016060815260200160006001600160a01b031681525090565b600082815260056020526040908190208151610120810190925280548290829061057b90612624565b80601f01602080910402602001604051908101604052809291908181526020018280546105a790612624565b80156105f45780601f106105c9576101008083540402835291602001916105f4565b820191906000526020600020905b8154815290600101906020018083116105d757829003601f168201915b5050505050815260200160018201805461060d90612624565b80601f016020809104026020016040519081016040528092919081815260200182805461063990612624565b80156106865780601f1061065b57610100808354040283529160200191610686565b820191906000526020600020905b81548152906001019060200180831161066957829003601f168201915b505050505081526020016002820154815260200160038201548152602001600482015481526020016005820180546106bd90612624565b80601f01602080910402602001604051908101604052809291908181526020018280546106e990612624565b80156107365780601f1061070b57610100808354040283529160200191610736565b820191906000526020600020905b81548152906001019060200180831161071957829003601f168201915b5050505050815260200160068201805461074f90612624565b80601f016020809104026020016040519081016040528092919081815260200182805461077b90612624565b80156107c85780601f1061079d576101008083540402835291602001916107c8565b820191906000526020600020905b8154815290600101906020018083116107ab57829003601f168201915b505050505081526020016007820180546107e190612624565b80601f016020809104026020016040519081016040528092919081815260200182805461080d90612624565b801561085a5780601f1061082f5761010080835404028352916020019161085a565b820191906000526020600020905b81548152906001019060200180831161083d57829003601f168201915b5050509183525050600891909101546001600160a01b031660209091015292915050565b60065460405163af7d696d60e01b81526001600160a01b03878116600483015260248201859052604482018490529091169063af7d696d90606401602060405180830381865afa1580156108d6573d6000803e3d6000fd5b505050506040513d601f19601f820116820180604052508101906108fa919061265e565b6109465760405162461bcd60e51b815260206004820152601760248201527f436f6d706c69616e636520636865636b206661696c656400000000000000000060448201526064016104a9565b610962338686866040518060200160405280600081525061115e565b5050505050565b60606002805461097890612624565b80601f01602080910402602001604051908101604052809291908181526020018280546109a490612624565b80156109f15780601f106109c6576101008083540402835291602001916109f1565b820191906000526020600020905b8154815290600101906020018083116109d457829003601f168201915b50505050509050919050565b7f8b8c0776df2c2176edf6f82391c35ea4891146d7a976ee36fd07f1a6fb4ead4c610a27816112a4565b6000838152600560205260409020600701610a4283826126c1565b50505050565b7f114e74f6ea3bd819998f78687bfcb11b140da08e9b7d222fa9c1f1ba1f2aa122610a72816112a4565b6040518061012001604052808c81526020018b81526020018a8152602001898152602001888152602001878152602001868152602001858152602001846001600160a01b0316815250600560008e81526020019081526020016000206000820151816000019081610ae391906126c1565b5060208201516001820190610af890826126c1565b5060408201516002820155606082015160038201556080820151600482015560a08201516005820190610b2b90826126c1565b5060c08201516006820190610b4090826126c1565b5060e08201516007820190610b5590826126c1565b506101009190910151600890910180546001600160a01b0319166001600160a01b03909216919091179055610b8c338d8b856112ae565b8b7fafd1e807b390d77ef14273b70b6fd8ad200a2658aca930bc7ff74ffeb4f943f38c8c8c8c8c8c8c8c8c604051610bcc999897969594939291906124e5565b60405180910390a2505050505050505050505050565b6001600160a01b038516331480610bfe5750610bfe85336103ee565b610c1a5760405162461bcd60e51b81526004016104a990612780565b61096285858585856113c2565b600082815260046020526040902060010154610c42816112a4565b610c4c838361159f565b505050565b6001600160a01b0381163314610cc15760405162461bcd60e51b815260206004820152602f60248201527f416363657373436f6e74726f6c3a2063616e206f6e6c792072656e6f756e636560448201526e103937b632b9903337b91039b2b63360891b60648201526084016104a9565b610ccb8282611625565b5050565b60608151835114610d345760405162461bcd60e51b815260206004820152602960248201527f455243313135353a206163636f756e747320616e6420696473206c656e677468604482015268040dad2e6dac2e8c6d60bb1b60648201526084016104a9565b600083516001600160401b03811115610d4f57610d4f611e1f565b604051908082528060200260200182016040528015610d78578160200160208202803683370190505b50905060005b8451811015610df057610dc3858281518110610d9c57610d9c6127ce565b6020026020010151858381518110610db657610db66127ce565b6020026020010151610442565b828281518110610dd557610dd56127ce565b6020908102919091010152610de9816127fa565b9050610d7e565b509392505050565b610e0061123e565b610e0a600061168c565b565b60009182526004602090815260408084206001600160a01b0393909316845291905290205460ff1690565b610ccb3383836116de565b600560205260009081526040902080548190610e5d90612624565b80601f0160208091040260200160405190810160405280929190818152602001828054610e8990612624565b8015610ed65780601f10610eab57610100808354040283529160200191610ed6565b820191906000526020600020905b815481529060010190602001808311610eb957829003601f168201915b505050505090806001018054610eeb90612624565b80601f0160208091040260200160405190810160405280929190818152602001828054610f1790612624565b8015610f645780601f10610f3957610100808354040283529160200191610f64565b820191906000526020600020905b815481529060010190602001808311610f4757829003601f168201915b505050505090806002015490806003015490806004015490806005018054610f8b90612624565b80601f0160208091040260200160405190810160405280929190818152602001828054610fb790612624565b80156110045780601f10610fd957610100808354040283529160200191611004565b820191906000526020600020905b815481529060010190602001808311610fe757829003601f168201915b50505050509080600601805461101990612624565b80601f016020809104026020016040519081016040528092919081815260200182805461104590612624565b80156110925780601f1061106757610100808354040283529160200191611092565b820191906000526020600020905b81548152906001019060200180831161107557829003601f168201915b5050505050908060070180546110a790612624565b80601f01602080910402602001604051908101604052809291908181526020018280546110d390612624565b80156111205780601f106110f557610100808354040283529160200191611120565b820191906000526020600020905b81548152906001019060200180831161110357829003601f168201915b505050600890930154919250506001600160a01b031689565b600082815260046020526040902060010154611154816112a4565b610c4c8383611625565b6001600160a01b03851633148061117a575061117a85336103ee565b6111965760405162461bcd60e51b81526004016104a990612780565b61096285858585856117be565b6111ab61123e565b6001600160a01b0381166112105760405162461bcd60e51b815260206004820152602660248201527f4f776e61626c653a206e6577206f776e657220697320746865207a65726f206160448201526564647265737360d01b60648201526084016104a9565b6104f78161168c565b60006001600160e01b03198216637965db0b60e01b14806104d557506104d5826118e8565b6003546001600160a01b03163314610e0a5760405162461bcd60e51b815260206004820181905260248201527f4f776e61626c653a2063616c6c6572206973206e6f7420746865206f776e657260448201526064016104a9565b6002610ccb82826126c1565b6104f78133611938565b6001600160a01b03841661130e5760405162461bcd60e51b815260206004820152602160248201527f455243313135353a206d696e7420746f20746865207a65726f206164647265736044820152607360f81b60648201526084016104a9565b33600061131a85611991565b9050600061132785611991565b90506000868152602081815260408083206001600160a01b038b16845290915281208054879290611359908490612813565b909155505060408051878152602081018790526001600160a01b03808a1692600092918716917fc3d58168c5ae7397731d063d5bbf3d657854427343f4c083240f7aacaa2d0f62910160405180910390a46113b9836000898989896119dc565b50505050505050565b81518351146114245760405162461bcd60e51b815260206004820152602860248201527f455243313135353a2069647320616e6420616d6f756e7473206c656e677468206044820152670dad2e6dac2e8c6d60c31b60648201526084016104a9565b6001600160a01b03841661144a5760405162461bcd60e51b81526004016104a990612826565b3360005b845181101561153157600085828151811061146b5761146b6127ce565b602002602001015190506000858381518110611489576114896127ce565b602090810291909101810151600084815280835260408082206001600160a01b038e1683529093529190912054909150818110156114d95760405162461bcd60e51b81526004016104a99061286b565b6000838152602081815260408083206001600160a01b038e8116855292528083208585039055908b16825281208054849290611516908490612813565b925050819055505050508061152a906127fa565b905061144e565b50846001600160a01b0316866001600160a01b0316826001600160a01b03167f4a39dc06d4c0dbc64b70af90fd698a233a518aa5d07e595d983b8c0526c8f7fb87876040516115819291906128b5565b60405180910390a4611597818787878787611b37565b505050505050565b6115a98282610e0c565b610ccb5760008281526004602090815260408083206001600160a01b03851684529091529020805460ff191660011790556115e13390565b6001600160a01b0316816001600160a01b0316837f2f8788117e7eff1d82e926ec794901d17c78024a50270940304540a733656f0d60405160405180910390a45050565b61162f8282610e0c565b15610ccb5760008281526004602090815260408083206001600160a01b0385168085529252808320805460ff1916905551339285917ff6391f5c32d9c69d2a47ea670b442974b53935d1edc7fd64eb21e047a839171b9190a45050565b600380546001600160a01b038381166001600160a01b0319831681179093556040519116919082907f8be0079c531659141344cd1fd0a4f28419497f9722a3daafe3b4186f6b6457e090600090a35050565b816001600160a01b0316836001600160a01b0316036117515760405162461bcd60e51b815260206004820152602960248201527f455243313135353a2073657474696e6720617070726f76616c20737461747573604482015268103337b91039b2b63360b91b60648201526084016104a9565b6001600160a01b03838116600081815260016020908152604080832094871680845294825291829020805460ff191686151590811790915591519182527f17307eab39ab6107e8899845ad3d59bd9653f200f220920489ca2b5937696c31910160405180910390a3505050565b6001600160a01b0384166117e45760405162461bcd60e51b81526004016104a990612826565b3360006117f085611991565b905060006117fd85611991565b90506000868152602081815260408083206001600160a01b038c168452909152902054858110156118405760405162461bcd60e51b81526004016104a99061286b565b6000878152602081815260408083206001600160a01b038d8116855292528083208985039055908a1682528120805488929061187d908490612813565b909155505060408051888152602081018890526001600160a01b03808b16928c821692918816917fc3d58168c5ae7397731d063d5bbf3d657854427343f4c083240f7aacaa2d0f62910160405180910390a46118dd848a8a8a8a8a6119dc565b505050505050505050565b60006001600160e01b03198216636cdb3d1360e11b148061191957506001600160e01b031982166303a24d0760e21b145b806104d557506301ffc9a760e01b6001600160e01b03198316146104d5565b6119428282610e0c565b610ccb5761194f81611bf2565b61195a836020611c04565b60405160200161196b9291906128e3565b60408051601f198184030181529082905262461bcd60e51b82526104a991600401612097565b604080516001808252818301909252606091600091906020808301908036833701905050905082816000815181106119cb576119cb6127ce565b602090810291909101015292915050565b6001600160a01b0384163b156115975760405163f23a6e6160e01b81526001600160a01b0385169063f23a6e6190611a209089908990889088908890600401612958565b6020604051808303816000875af1925050508015611a5b575060408051601f3d908101601f19168201909252611a589181019061299d565b60015b611b0757611a676129ba565b806308c379a003611aa05750611a7b6129d6565b80611a865750611aa2565b8060405162461bcd60e51b81526004016104a99190612097565b505b60405162461bcd60e51b815260206004820152603460248201527f455243313135353a207472616e7366657220746f206e6f6e2d455243313135356044820152732932b1b2b4bb32b91034b6b83632b6b2b73a32b960611b60648201526084016104a9565b6001600160e01b0319811663f23a6e6160e01b146113b95760405162461bcd60e51b81526004016104a990612a5f565b6001600160a01b0384163b156115975760405163bc197c8160e01b81526001600160a01b0385169063bc197c8190611b7b9089908990889088908890600401612aa7565b6020604051808303816000875af1925050508015611bb6575060408051601f3d908101601f19168201909252611bb39181019061299d565b60015b611bc257611a676129ba565b6001600160e01b0319811663bc197c8160e01b146113b95760405162461bcd60e51b81526004016104a990612a5f565b60606104d56001600160a01b03831660145b60606000611c13836002612b05565b611c1e906002612813565b6001600160401b03811115611c3557611c35611e1f565b6040519080825280601f01601f191660200182016040528015611c5f576020820181803683370190505b509050600360fc1b81600081518110611c7a57611c7a6127ce565b60200101906001600160f81b031916908160001a905350600f60fb1b81600181518110611ca957611ca96127ce565b60200101906001600160f81b031916908160001a9053506000611ccd846002612b05565b611cd8906001612813565b90505b6001811115611d50576f181899199a1a9b1b9c1cb0b131b232b360811b85600f1660108110611d0c57611d0c6127ce565b1a60f81b828281518110611d2257611d226127ce565b60200101906001600160f81b031916908160001a90535060049490941c93611d4981612b1c565b9050611cdb565b508315611d9f5760405162461bcd60e51b815260206004820181905260248201527f537472696e67733a20686578206c656e67746820696e73756666696369656e7460448201526064016104a9565b9392505050565b80356001600160a01b0381168114611dbd57600080fd5b919050565b60008060408385031215611dd557600080fd5b611dde83611da6565b946020939093013593505050565b6001600160e01b0319811681146104f757600080fd5b600060208284031215611e1457600080fd5b8135611d9f81611dec565b634e487b7160e01b600052604160045260246000fd5b601f8201601f191681016001600160401b0381118282101715611e5a57611e5a611e1f565b6040525050565b600082601f830112611e7257600080fd5b81356001600160401b03811115611e8b57611e8b611e1f565b604051611ea2601f8301601f191660200182611e35565b818152846020838601011115611eb757600080fd5b816020850160208301376000918101602001919091529392505050565b600060208284031215611ee657600080fd5b81356001600160401b03811115611efc57600080fd5b611f0884828501611e61565b949350505050565b600060208284031215611f2257600080fd5b5035919050565b60005b83811015611f44578181015183820152602001611f2c565b50506000910152565b60008151808452611f65816020860160208601611f29565b601f01601f19169290920160200192915050565b6020815260008251610120806020850152611f98610140850183611f4d565b91506020850151601f1980868503016040870152611fb68483611f4d565b93506040870151606087015260608701516080870152608087015160a087015260a08701519150808685030160c0870152611ff18483611f4d565b935060c08701519150808685030160e087015261200e8483611f4d565b935060e0870151915061010081878603018188015261202d8584611f4d565b9450808801519250505061204b828601826001600160a01b03169052565b5090949350505050565b600080600080600060a0868803121561206d57600080fd5b61207686611da6565b97602087013597506040870135966060810135965060800135945092505050565b602081526000611d9f6020830184611f4d565b600080604083850312156120bd57600080fd5b8235915060208301356001600160401b038111156120da57600080fd5b6120e685828601611e61565b9150509250929050565b60008060008060008060008060008060006101608c8e03121561211257600080fd5b8b359a506001600160401b038060208e0135111561212f57600080fd5b61213f8e60208f01358f01611e61565b9a508060408e0135111561215257600080fd5b6121628e60408f01358f01611e61565b995060608d0135985060808d0135975060a08d013596508060c08e0135111561218a57600080fd5b61219a8e60c08f01358f01611e61565b95508060e08e013511156121ad57600080fd5b6121bd8e60e08f01358f01611e61565b9450806101008e013511156121d157600080fd5b6121e28e6101008f01358f01611e61565b93506121f16101208e01611da6565b9250806101408e0135111561220557600080fd5b506122178d6101408e01358e01611e61565b90509295989b509295989b9093969950565b60006001600160401b0382111561224257612242611e1f565b5060051b60200190565b600082601f83011261225d57600080fd5b8135602061226a82612229565b6040516122778282611e35565b83815260059390931b850182019282810191508684111561229757600080fd5b8286015b848110156122b2578035835291830191830161229b565b509695505050505050565b600080600080600060a086880312156122d557600080fd5b6122de86611da6565b94506122ec60208701611da6565b935060408601356001600160401b038082111561230857600080fd5b61231489838a0161224c565b9450606088013591508082111561232a57600080fd5b61233689838a0161224c565b9350608088013591508082111561234c57600080fd5b5061235988828901611e61565b9150509295509295909350565b6000806040838503121561237957600080fd5b8235915061238960208401611da6565b90509250929050565b600080604083850312156123a557600080fd5b82356001600160401b03808211156123bc57600080fd5b818501915085601f8301126123d057600080fd5b813560206123dd82612229565b6040516123ea8282611e35565b83815260059390931b850182019282810191508984111561240a57600080fd5b948201945b8386101561242f5761242086611da6565b8252948201949082019061240f565b9650508601359250508082111561244557600080fd5b506120e68582860161224c565b600081518084526020808501945080840160005b8381101561248257815187529582019590820190600101612466565b509495945050505050565b602081526000611d9f6020830184612452565b80151581146104f757600080fd5b600080604083850312156124c157600080fd5b6124ca83611da6565b915060208301356124da816124a0565b809150509250929050565b60006101208083526124f98184018d611f4d565b9050828103602084015261250d818c611f4d565b905089604084015288606084015287608084015282810360a08401526125338188611f4d565b905082810360c08401526125478187611f4d565b905082810360e084015261255b8186611f4d565b91505060018060a01b0383166101008301529a9950505050505050505050565b6000806040838503121561258e57600080fd5b61259783611da6565b915061238960208401611da6565b600080600080600060a086880312156125bd57600080fd5b6125c686611da6565b94506125d460208701611da6565b9350604086013592506060860135915060808601356001600160401b038111156125fd57600080fd5b61235988828901611e61565b60006020828403121561261b57600080fd5b611d9f82611da6565b600181811c9082168061263857607f821691505b60208210810361265857634e487b7160e01b600052602260045260246000fd5b50919050565b60006020828403121561267057600080fd5b8151611d9f816124a0565b601f821115610c4c57600081815260208120601f850160051c810160208610156126a25750805b601f850160051c820191505b81811015611597578281556001016126ae565b81516001600160401b038111156126da576126da611e1f565b6126ee816126e88454612624565b8461267b565b602080601f831160018114612723576000841561270b5750858301515b600019600386901b1c1916600185901b178555611597565b600085815260208120601f198616915b8281101561275257888601518255948401946001909101908401612733565b50858210156127705787850151600019600388901b60f8161c191681555b5050505050600190811b01905550565b6020808252602e908201527f455243313135353a2063616c6c6572206973206e6f7420746f6b656e206f776e60408201526d195c881bdc88185c1c1c9bdd995960921b606082015260800190565b634e487b7160e01b600052603260045260246000fd5b634e487b7160e01b600052601160045260246000fd5b60006001820161280c5761280c6127e4565b5060010190565b808201808211156104d5576104d56127e4565b60208082526025908201527f455243313135353a207472616e7366657220746f20746865207a65726f206164604082015264647265737360d81b606082015260800190565b6020808252602a908201527f455243313135353a20696e73756666696369656e742062616c616e636520666f60408201526939103a3930b739b332b960b11b606082015260800190565b6040815260006128c86040830185612452565b82810360208401526128da8185612452565b95945050505050565b7f416363657373436f6e74726f6c3a206163636f756e742000000000000000000081526000835161291b816017850160208801611f29565b7001034b99036b4b9b9b4b733903937b6329607d1b601791840191820152835161294c816028840160208801611f29565b01602801949350505050565b6001600160a01b03868116825285166020820152604081018490526060810183905260a06080820181905260009061299290830184611f4d565b979650505050505050565b6000602082840312156129af57600080fd5b8151611d9f81611dec565b600060033d11156129d35760046000803e5060005160e01c5b90565b600060443d10156129e45790565b6040516003193d81016004833e81513d6001600160401b038160248401118184111715612a1357505050505090565b8285019150815181811115612a2b5750505050505090565b843d8701016020828501011115612a455750505050505090565b612a5460208286010187611e35565b509095945050505050565b60208082526028908201527f455243313135353a204552433131353552656365697665722072656a656374656040820152676420746f6b656e7360c01b606082015260800190565b6001600160a01b0386811682528516602082015260a060408201819052600090612ad390830186612452565b8281036060840152612ae58186612452565b90508281036080840152612af98185611f4d565b98975050505050505050565b80820281158282048414176104d5576104d56127e4565b600081612b2b57612b2b6127e4565b50600019019056fea26469706673582212206db7ddb523227b95f56dc56420ccbec50e72fcb56d3981be1112e66684f365eb64736f6c63430008110033a26469706673582212203a8f19de803343b1b9f3eb0e2d22e332bd25d68e963e016d6c8a8b0054ba7a3164736f6c63430008110033",
  "devdoc": {
    "kind": "dev",
    "methods": {},
    "version": 1
  },
  "userdoc": {
    "kind": "user",
    "methods": {},
    "version": 1
  },
  "storageLayout": {
    "storage": [],
    "types": null
  }
}